{
  "_format": "hh-sol-artifact-1",
  "contractName": "charity_Platform",
  "sourceName": "contracts/charity_Platform.sol",
  "abi": [
    {
      "inputs": [],
      "stateMutability": "nonpayable",
      "type": "constructor"
    },
    {
      "anonymous": false,
      "inputs": [
        {
          "indexed": true,
          "internalType": "uint256",
          "name": "_campaignId",
          "type": "uint256"
        },
        {
          "indexed": true,
          "internalType": "address",
          "name": "_creator",
          "type": "address"
        }
      ],
      "name": "CampaignCreated",
      "type": "event"
    },
    {
      "anonymous": false,
      "inputs": [
        {
          "indexed": false,
          "internalType": "address",
          "name": "_userAddr",
          "type": "address"
        },
        {
          "indexed": false,
          "internalType": "uint256",
          "name": "_amount",
          "type": "uint256"
        }
      ],
      "name": "CreditAdded",
      "type": "event"
    },
    {
      "anonymous": false,
      "inputs": [
        {
          "indexed": false,
          "internalType": "string",
          "name": "message",
          "type": "string"
        },
        {
          "indexed": false,
          "internalType": "uint256",
          "name": "value",
          "type": "uint256"
        }
      ],
      "name": "DebugLog",
      "type": "event"
    },
    {
      "anonymous": false,
      "inputs": [
        {
          "indexed": false,
          "internalType": "string",
          "name": "message",
          "type": "string"
        },
        {
          "indexed": false,
          "internalType": "address",
          "name": "addr",
          "type": "address"
        }
      ],
      "name": "DebugLogAddress",
      "type": "event"
    },
    {
      "anonymous": false,
      "inputs": [
        {
          "indexed": true,
          "internalType": "address",
          "name": "donor",
          "type": "address"
        },
        {
          "indexed": true,
          "internalType": "uint256",
          "name": "campaignId",
          "type": "uint256"
        },
        {
          "indexed": false,
          "internalType": "uint256",
          "name": "amount",
          "type": "uint256"
        }
      ],
      "name": "DonationReceived",
      "type": "event"
    },
    {
      "anonymous": false,
      "inputs": [
        {
          "indexed": false,
          "internalType": "address",
          "name": "_userAddr",
          "type": "address"
        }
      ],
      "name": "RegistrationSuccess",
      "type": "event"
    },
    {
      "anonymous": false,
      "inputs": [
        {
          "indexed": true,
          "internalType": "address",
          "name": "user",
          "type": "address"
        },
        {
          "indexed": true,
          "internalType": "uint256",
          "name": "campaignId",
          "type": "uint256"
        },
        {
          "indexed": false,
          "internalType": "uint256",
          "name": "amount",
          "type": "uint256"
        }
      ],
      "name": "WithdrawalSuccess",
      "type": "event"
    },
    {
      "inputs": [
        {
          "internalType": "address",
          "name": "addr",
          "type": "address"
        },
        {
          "internalType": "uint256",
          "name": "amount",
          "type": "uint256"
        }
      ],
      "name": "addCredits",
      "outputs": [],
      "stateMutability": "nonpayable",
      "type": "function"
    },
    {
      "inputs": [],
      "name": "campaignCount",
      "outputs": [
        {
          "internalType": "uint256",
          "name": "",
          "type": "uint256"
        }
      ],
      "stateMutability": "view",
      "type": "function"
    },
    {
      "inputs": [
        {
          "internalType": "uint256",
          "name": "",
          "type": "uint256"
        }
      ],
      "name": "campaigns",
      "outputs": [
        {
          "internalType": "uint256",
          "name": "campaignId",
          "type": "uint256"
        },
        {
          "internalType": "address",
          "name": "creator",
          "type": "address"
        },
        {
          "internalType": "string",
          "name": "title",
          "type": "string"
        },
        {
          "internalType": "string",
          "name": "description",
          "type": "string"
        },
        {
          "internalType": "uint256",
          "name": "goal",
          "type": "uint256"
        },
        {
          "internalType": "uint256",
          "name": "raisedAmount",
          "type": "uint256"
        },
        {
          "internalType": "bool",
          "name": "completed",
          "type": "bool"
        }
      ],
      "stateMutability": "view",
      "type": "function"
    },
    {
      "inputs": [
        {
          "internalType": "string",
          "name": "_title",
          "type": "string"
        },
        {
          "internalType": "string",
          "name": "_description",
          "type": "string"
        },
        {
          "internalType": "uint256",
          "name": "_goal",
          "type": "uint256"
        }
      ],
      "name": "createCampaign",
      "outputs": [],
      "stateMutability": "nonpayable",
      "type": "function"
    },
    {
      "inputs": [
        {
          "internalType": "uint256",
          "name": "_campaignId",
          "type": "uint256"
        },
        {
          "internalType": "uint256",
          "name": "_amount",
          "type": "uint256"
        }
      ],
      "name": "donate",
      "outputs": [],
      "stateMutability": "nonpayable",
      "type": "function"
    },
    {
      "inputs": [
        {
          "internalType": "uint256",
          "name": "_campaignId",
          "type": "uint256"
        }
      ],
      "name": "getCampaignDetails",
      "outputs": [
        {
          "components": [
            {
              "internalType": "uint256",
              "name": "campaignId",
              "type": "uint256"
            },
            {
              "internalType": "address",
              "name": "creator",
              "type": "address"
            },
            {
              "internalType": "string",
              "name": "title",
              "type": "string"
            },
            {
              "internalType": "string",
              "name": "description",
              "type": "string"
            },
            {
              "internalType": "uint256",
              "name": "goal",
              "type": "uint256"
            },
            {
              "internalType": "uint256",
              "name": "raisedAmount",
              "type": "uint256"
            },
            {
              "internalType": "bool",
              "name": "completed",
              "type": "bool"
            }
          ],
          "internalType": "struct charity_Platform.Campaign",
          "name": "",
          "type": "tuple"
        }
      ],
      "stateMutability": "view",
      "type": "function"
    },
    {
      "inputs": [
        {
          "internalType": "address",
          "name": "addr",
          "type": "address"
        }
      ],
      "name": "getUserCredits",
      "outputs": [
        {
          "internalType": "uint256",
          "name": "",
          "type": "uint256"
        }
      ],
      "stateMutability": "view",
      "type": "function"
    },
    {
      "inputs": [],
      "name": "initialCredits",
      "outputs": [
        {
          "internalType": "uint256",
          "name": "",
          "type": "uint256"
        }
      ],
      "stateMutability": "view",
      "type": "function"
    },
    {
      "inputs": [],
      "name": "owner",
      "outputs": [
        {
          "internalType": "address",
          "name": "",
          "type": "address"
        }
      ],
      "stateMutability": "view",
      "type": "function"
    },
    {
      "inputs": [
        {
          "internalType": "address",
          "name": "addr",
          "type": "address"
        }
      ],
      "name": "registerUser",
      "outputs": [],
      "stateMutability": "nonpayable",
      "type": "function"
    },
    {
      "inputs": [],
      "name": "userCounter",
      "outputs": [
        {
          "internalType": "uint256",
          "name": "",
          "type": "uint256"
        }
      ],
      "stateMutability": "view",
      "type": "function"
    },
    {
      "inputs": [
        {
          "internalType": "address",
          "name": "",
          "type": "address"
        }
      ],
      "name": "users",
      "outputs": [
        {
          "internalType": "bool",
          "name": "registered",
          "type": "bool"
        },
        {
          "internalType": "uint256",
          "name": "credits",
          "type": "uint256"
        }
      ],
      "stateMutability": "view",
      "type": "function"
    },
    {
      "inputs": [
        {
          "internalType": "uint256",
          "name": "_campaignId",
          "type": "uint256"
        },
        {
          "internalType": "address",
          "name": "addr",
          "type": "address"
        }
      ],
      "name": "withdrawFunds",
      "outputs": [],
      "stateMutability": "nonpayable",
      "type": "function"
    }
  ],
  "bytecode": "0x608060405234801561001057600080fd5b5033600460006101000a81548173ffffffffffffffffffffffffffffffffffffffff021916908373ffffffffffffffffffffffffffffffffffffffff16021790555061209d806100616000396000f3fe608060405234801561001057600080fd5b50600436106100cf5760003560e01c806381b26dda1161008c578063a87430ba11610066578063a87430ba14610204578063d993de6214610235578063f0c37a5914610265578063ffa56a5714610283576100cf565b806381b26dda1461019a578063871ff405146101ca5780638da5cb5b146101e6576100cf565b80630b18e614146100d45780630cdd53f6146100f2578063141961bc1461010e5780632199d5cd146101445780637274e30d14610160578063744bfe611461017e575b600080fd5b6100dc61029f565b6040516100e991906111b3565b60405180910390f35b61010c6004803603810190610107919061120e565b6102a5565b005b6101286004803603810190610123919061124e565b61051a565b60405161013b9796959493929190611367565b60405180910390f35b61015e60048036038101906101599190611410565b610699565b005b610168610801565b60405161017591906111b3565b60405180910390f35b6101986004803603810190610193919061143d565b610807565b005b6101b460048036038101906101af9190611410565b610ab8565b6040516101c191906111b3565b60405180910390f35b6101e460048036038101906101df919061147d565b610b93565b005b6101ee610d48565b6040516101fb91906114bd565b60405180910390f35b61021e60048036038101906102199190611410565b610d6e565b60405161022c9291906114d8565b60405180910390f35b61024f600480360381019061024a919061124e565b610d9f565b60405161025c919061161b565b60405180910390f35b61026d610fc4565b60405161027a91906111b3565b60405180910390f35b61029d60048036038101906102989190611772565b610fca565b005b6103e881565b6000821180156102b757506003548211155b6102f6576040517f08c379a00000000000000000000000000000000000000000000000000000000081526004016102ed90611849565b60405180910390fd5b60008111610339576040517f08c379a0000000000000000000000000000000000000000000000000000000008152600401610330906118b5565b60405180910390fd5b60006001600084815260200190815260200160002090508060060160009054906101000a900460ff16156103a2576040517f08c379a000000000000000000000000000000000000000000000000000000000815260040161039990611921565b60405180910390fd5b816000803373ffffffffffffffffffffffffffffffffffffffff1673ffffffffffffffffffffffffffffffffffffffff168152602001908152602001600020600101541015610426576040517f08c379a000000000000000000000000000000000000000000000000000000000815260040161041d9061198d565b60405180910390fd5b816000803373ffffffffffffffffffffffffffffffffffffffff1673ffffffffffffffffffffffffffffffffffffffff168152602001908152602001600020600101600082825461047791906119dc565b92505081905550818160050160008282546104929190611a10565b9250508190555080600401548160050154106104c65760018160060160006101000a81548160ff0219169083151502179055505b823373ffffffffffffffffffffffffffffffffffffffff167f4b0304ab2f313234b1cea012339c8f8c3bf2c8bb357d81a579cfdb35d2e3d0308460405161050d91906111b3565b60405180910390a3505050565b60016020528060005260406000206000915090508060000154908060010160009054906101000a900473ffffffffffffffffffffffffffffffffffffffff169080600201805461056990611a73565b80601f016020809104026020016040519081016040528092919081815260200182805461059590611a73565b80156105e25780601f106105b7576101008083540402835291602001916105e2565b820191906000526020600020905b8154815290600101906020018083116105c557829003601f168201915b5050505050908060030180546105f790611a73565b80601f016020809104026020016040519081016040528092919081815260200182805461062390611a73565b80156106705780601f1061064557610100808354040283529160200191610670565b820191906000526020600020905b81548152906001019060200180831161065357829003601f168201915b5050505050908060040154908060050154908060060160009054906101000a900460ff16905087565b806000808273ffffffffffffffffffffffffffffffffffffffff1673ffffffffffffffffffffffffffffffffffffffff16815260200190815260200160002060000160009054906101000a900460ff1615610729576040517f08c379a000000000000000000000000000000000000000000000000000000000815260040161072090611af0565b60405180910390fd5b60405180604001604052806001151581526020016103e88152506000808473ffffffffffffffffffffffffffffffffffffffff1673ffffffffffffffffffffffffffffffffffffffff16815260200190815260200160002060008201518160000160006101000a81548160ff02191690831515021790555060208201518160010155905050600260008154809291906107c190611b10565b91905055507f8dcd7c08b0210742c621c9ac106f92321fed60215a0adcd8d5c377e1e0460a41826040516107f591906114bd565b60405180910390a15050565b60035481565b806000808273ffffffffffffffffffffffffffffffffffffffff1673ffffffffffffffffffffffffffffffffffffffff16815260200190815260200160002060000160009054906101000a900460ff16610896576040517f08c379a000000000000000000000000000000000000000000000000000000000815260040161088d90611ba4565b60405180910390fd5b6001600084815260200190815260200160002060060160009054906101000a900460ff166108f9576040517f08c379a00000000000000000000000000000000000000000000000000000000081526004016108f090611c10565b60405180910390fd5b6000808373ffffffffffffffffffffffffffffffffffffffff1673ffffffffffffffffffffffffffffffffffffffff16815260200190815260200160002060000160009054906101000a900460ff16610987576040517f08c379a000000000000000000000000000000000000000000000000000000000815260040161097e90611ca2565b60405180910390fd5b60006001600085815260200190815260200160002060050154116109e0576040517f08c379a00000000000000000000000000000000000000000000000000000000081526004016109d790611d0e565b60405180910390fd5b60016000848152602001908152602001600020600501546000808473ffffffffffffffffffffffffffffffffffffffff1673ffffffffffffffffffffffffffffffffffffffff1681526020019081526020016000206001016000828254610a479190611a10565b92505081905550828273ffffffffffffffffffffffffffffffffffffffff167f55fab133810f0142a2d2568e414498e9a7cff92f9da19c595a95a617b9b9f7d66001600087815260200190815260200160002060050154604051610aab91906111b3565b60405180910390a3505050565b6000816000808273ffffffffffffffffffffffffffffffffffffffff1673ffffffffffffffffffffffffffffffffffffffff16815260200190815260200160002060000160009054906101000a900460ff16610b49576040517f08c379a0000000000000000000000000000000000000000000000000000000008152600401610b4090611ba4565b60405180910390fd5b6000808473ffffffffffffffffffffffffffffffffffffffff1673ffffffffffffffffffffffffffffffffffffffff16815260200190815260200160002060010154915050919050565b816000808273ffffffffffffffffffffffffffffffffffffffff1673ffffffffffffffffffffffffffffffffffffffff16815260200190815260200160002060000160009054906101000a900460ff16610c22576040517f08c379a0000000000000000000000000000000000000000000000000000000008152600401610c1990611ba4565b60405180910390fd5b600460009054906101000a900473ffffffffffffffffffffffffffffffffffffffff1673ffffffffffffffffffffffffffffffffffffffff163373ffffffffffffffffffffffffffffffffffffffff1614610cb2576040517f08c379a0000000000000000000000000000000000000000000000000000000008152600401610ca990611da0565b60405180910390fd5b816000808573ffffffffffffffffffffffffffffffffffffffff1673ffffffffffffffffffffffffffffffffffffffff1681526020019081526020016000206001016000828254610d039190611a10565b925050819055507f648ec643b30463f72debf7027a0f9ff84bbdf4dc1a2a7ab973cb77dec53265688383604051610d3b929190611dc0565b60405180910390a1505050565b600460009054906101000a900473ffffffffffffffffffffffffffffffffffffffff1681565b60006020528060005260406000206000915090508060000160009054906101000a900460ff16908060010154905082565b610da7611145565b600354821115610dec576040517f08c379a0000000000000000000000000000000000000000000000000000000008152600401610de390611849565b60405180910390fd5b600160008381526020019081526020016000206040518060e0016040529081600082015481526020016001820160009054906101000a900473ffffffffffffffffffffffffffffffffffffffff1673ffffffffffffffffffffffffffffffffffffffff1673ffffffffffffffffffffffffffffffffffffffff168152602001600282018054610e7a90611a73565b80601f0160208091040260200160405190810160405280929190818152602001828054610ea690611a73565b8015610ef35780601f10610ec857610100808354040283529160200191610ef3565b820191906000526020600020905b815481529060010190602001808311610ed657829003601f168201915b50505050508152602001600382018054610f0c90611a73565b80601f0160208091040260200160405190810160405280929190818152602001828054610f3890611a73565b8015610f855780601f10610f5a57610100808354040283529160200191610f85565b820191906000526020600020905b815481529060010190602001808311610f6857829003601f168201915b5050505050815260200160048201548152602001600582015481526020016006820160009054906101000a900460ff1615151515815250509050919050565b60025481565b60036000815480929190610fdd90611b10565b91905055506040518060e0016040528060035481526020013373ffffffffffffffffffffffffffffffffffffffff16815260200184815260200183815260200182815260200160008152602001600015158152506001600060035481526020019081526020016000206000820151816000015560208201518160010160006101000a81548173ffffffffffffffffffffffffffffffffffffffff021916908373ffffffffffffffffffffffffffffffffffffffff16021790555060408201518160020190816110ac9190611f95565b5060608201518160030190816110c29190611f95565b506080820151816004015560a0820151816005015560c08201518160060160006101000a81548160ff0219169083151502179055509050503373ffffffffffffffffffffffffffffffffffffffff166003547f633109eec20320eded000fc1e2634211aa7e92ba3f5b15faf6dcdafca05094e460405160405180910390a3505050565b6040518060e0016040528060008152602001600073ffffffffffffffffffffffffffffffffffffffff168152602001606081526020016060815260200160008152602001600081526020016000151581525090565b6000819050919050565b6111ad8161119a565b82525050565b60006020820190506111c860008301846111a4565b92915050565b6000604051905090565b600080fd5b600080fd5b6111eb8161119a565b81146111f657600080fd5b50565b600081359050611208816111e2565b92915050565b60008060408385031215611225576112246111d8565b5b6000611233858286016111f9565b9250506020611244858286016111f9565b9150509250929050565b600060208284031215611264576112636111d8565b5b6000611272848285016111f9565b91505092915050565b600073ffffffffffffffffffffffffffffffffffffffff82169050919050565b60006112a68261127b565b9050919050565b6112b68161129b565b82525050565b600081519050919050565b600082825260208201905092915050565b60005b838110156112f65780820151818401526020810190506112db565b60008484015250505050565b6000601f19601f8301169050919050565b600061131e826112bc565b61132881856112c7565b93506113388185602086016112d8565b61134181611302565b840191505092915050565b60008115159050919050565b6113618161134c565b82525050565b600060e08201905061137c600083018a6111a4565b61138960208301896112ad565b818103604083015261139b8188611313565b905081810360608301526113af8187611313565b90506113be60808301866111a4565b6113cb60a08301856111a4565b6113d860c0830184611358565b98975050505050505050565b6113ed8161129b565b81146113f857600080fd5b50565b60008135905061140a816113e4565b92915050565b600060208284031215611426576114256111d8565b5b6000611434848285016113fb565b91505092915050565b60008060408385031215611454576114536111d8565b5b6000611462858286016111f9565b9250506020611473858286016113fb565b9150509250929050565b60008060408385031215611494576114936111d8565b5b60006114a2858286016113fb565b92505060206114b3858286016111f9565b9150509250929050565b60006020820190506114d260008301846112ad565b92915050565b60006040820190506114ed6000830185611358565b6114fa60208301846111a4565b9392505050565b61150a8161119a565b82525050565b6115198161129b565b82525050565b600082825260208201905092915050565b600061153b826112bc565b611545818561151f565b93506115558185602086016112d8565b61155e81611302565b840191505092915050565b6115728161134c565b82525050565b600060e0830160008301516115906000860182611501565b5060208301516115a36020860182611510565b50604083015184820360408601526115bb8282611530565b915050606083015184820360608601526115d58282611530565b91505060808301516115ea6080860182611501565b5060a08301516115fd60a0860182611501565b5060c083015161161060c0860182611569565b508091505092915050565b600060208201905081810360008301526116358184611578565b905092915050565b600080fd5b600080fd5b7f4e487b7100000000000000000000000000000000000000000000000000000000600052604160045260246000fd5b61167f82611302565b810181811067ffffffffffffffff8211171561169e5761169d611647565b5b80604052505050565b60006116b16111ce565b90506116bd8282611676565b919050565b600067ffffffffffffffff8211156116dd576116dc611647565b5b6116e682611302565b9050602081019050919050565b82818337600083830152505050565b6000611715611710846116c2565b6116a7565b90508281526020810184848401111561173157611730611642565b5b61173c8482856116f3565b509392505050565b600082601f8301126117595761175861163d565b5b8135611769848260208601611702565b91505092915050565b60008060006060848603121561178b5761178a6111d8565b5b600084013567ffffffffffffffff8111156117a9576117a86111dd565b5b6117b586828701611744565b935050602084013567ffffffffffffffff8111156117d6576117d56111dd565b5b6117e286828701611744565b92505060406117f3868287016111f9565b9150509250925092565b7f496e76616c69642063616d706169676e20494400000000000000000000000000600082015250565b60006118336013836112c7565b915061183e826117fd565b602082019050919050565b6000602082019050818103600083015261186281611826565b9050919050565b7f496e76616c696420646f6e6174696f6e20616d6f756e74000000000000000000600082015250565b600061189f6017836112c7565b91506118aa82611869565b602082019050919050565b600060208201905081810360008301526118ce81611892565b9050919050565b7f43616d706169676e20616c726561647920636f6d706c65746564000000000000600082015250565b600061190b601a836112c7565b9150611916826118d5565b602082019050919050565b6000602082019050818103600083015261193a816118fe565b9050919050565b7f496e73756666696369656e742063726564697400000000000000000000000000600082015250565b60006119776013836112c7565b915061198282611941565b602082019050919050565b600060208201905081810360008301526119a68161196a565b9050919050565b7f4e487b7100000000000000000000000000000000000000000000000000000000600052601160045260246000fd5b60006119e78261119a565b91506119f28361119a565b9250828203905081811115611a0a57611a096119ad565b5b92915050565b6000611a1b8261119a565b9150611a268361119a565b9250828201905080821115611a3e57611a3d6119ad565b5b92915050565b7f4e487b7100000000000000000000000000000000000000000000000000000000600052602260045260246000fd5b60006002820490506001821680611a8b57607f821691505b602082108103611a9e57611a9d611a44565b5b50919050565b7f5573657220616c72656164792072656769737465726564000000000000000000600082015250565b6000611ada6017836112c7565b9150611ae582611aa4565b602082019050919050565b60006020820190508181036000830152611b0981611acd565b9050919050565b6000611b1b8261119a565b91507fffffffffffffffffffffffffffffffffffffffffffffffffffffffffffffffff8203611b4d57611b4c6119ad565b5b600182019050919050565b7f55736572206e6f74207265676973746572656400000000000000000000000000600082015250565b6000611b8e6013836112c7565b9150611b9982611b58565b602082019050919050565b60006020820190508181036000830152611bbd81611b81565b9050919050565b7f43616d706169676e206e6f7420636f6d706c6574656400000000000000000000600082015250565b6000611bfa6016836112c7565b9150611c0582611bc4565b602082019050919050565b60006020820190508181036000830152611c2981611bed565b9050919050565b7f55736572206e6f74207265676973746572656420666f7220776974686472617760008201527f616c000000000000000000000000000000000000000000000000000000000000602082015250565b6000611c8c6022836112c7565b9150611c9782611c30565b604082019050919050565b60006020820190508181036000830152611cbb81611c7f565b9050919050565b7f4e6f2066756e647320746f207769746864726177000000000000000000000000600082015250565b6000611cf86014836112c7565b9150611d0382611cc2565b602082019050919050565b60006020820190508181036000830152611d2781611ceb565b9050919050565b7f4f6e6c7920636f6e7472616374206f776e65722063616e2063616c6c2074686960008201527f732066756e6374696f6e00000000000000000000000000000000000000000000602082015250565b6000611d8a602a836112c7565b9150611d9582611d2e565b604082019050919050565b60006020820190508181036000830152611db981611d7d565b9050919050565b6000604082019050611dd560008301856112ad565b611de260208301846111a4565b9392505050565b60008190508160005260206000209050919050565b60006020601f8301049050919050565b600082821b905092915050565b600060088302611e4b7fffffffffffffffffffffffffffffffffffffffffffffffffffffffffffffffff82611e0e565b611e558683611e0e565b95508019841693508086168417925050509392505050565b6000819050919050565b6000611e92611e8d611e888461119a565b611e6d565b61119a565b9050919050565b6000819050919050565b611eac83611e77565b611ec0611eb882611e99565b848454611e1b565b825550505050565b600090565b611ed5611ec8565b611ee0818484611ea3565b505050565b5b81811015611f0457611ef9600082611ecd565b600181019050611ee6565b5050565b601f821115611f4957611f1a81611de9565b611f2384611dfe565b81016020851015611f32578190505b611f46611f3e85611dfe565b830182611ee5565b50505b505050565b600082821c905092915050565b6000611f6c60001984600802611f4e565b1980831691505092915050565b6000611f858383611f5b565b9150826002028217905092915050565b611f9e826112bc565b67ffffffffffffffff811115611fb757611fb6611647565b5b611fc18254611a73565b611fcc828285611f08565b600060209050601f831160018114611fff5760008415611fed578287015190505b611ff78582611f79565b86555061205f565b601f19841661200d86611de9565b60005b8281101561203557848901518255600182019150602085019450602081019050612010565b86831015612052578489015161204e601f891682611f5b565b8355505b6001600288020188555050505b50505050505056fea264697066735822122098de4e7655c05f7e09dbd34e96145a6edb9a1e341260d9270984b4bb1727b44664736f6c63430008180033",
  "linkReferences": {},
  "deployedLinkReferences": {}
}